{
  "_format": "hh-sol-artifact-1",
  "contractName": "DonationBox",
  "sourceName": "contracts/DonationBox.sol",
  "abi": [
    {
      "inputs": [],
      "stateMutability": "nonpayable",
      "type": "constructor"
    },
    {
      "anonymous": false,
      "inputs": [
        {
          "indexed": false,
          "internalType": "address",
          "name": "sender",
          "type": "address"
        },
        {
          "indexed": false,
          "internalType": "uint256",
          "name": "amount",
          "type": "uint256"
        }
      ],
      "name": "DonationTransferred",
      "type": "event"
    },
    {
      "inputs": [],
      "name": "donate",
      "outputs": [],
      "stateMutability": "payable",
      "type": "function"
    },
    {
      "inputs": [],
      "name": "getTotalDonations",
      "outputs": [
        {
          "internalType": "uint256",
          "name": "",
          "type": "uint256"
        }
      ],
      "stateMutability": "view",
      "type": "function"
    }
  ],
  "bytecode": "0x60806040526000805534801561001457600080fd5b5033600160006101000a81548173ffffffffffffffffffffffffffffffffffffffff021916908373ffffffffffffffffffffffffffffffffffffffff1602179055506103aa806100656000396000f3fe6080604052600436106100295760003560e01c8063777c658f1461002e578063ed88c68e14610059575b600080fd5b34801561003a57600080fd5b50610043610063565b6040516100509190610250565b60405180910390f35b61006161006c565b005b60008054905090565b6000600160009054906101000a900473ffffffffffffffffffffffffffffffffffffffff1673ffffffffffffffffffffffffffffffffffffffff16346040516100b4906101f2565b60006040518083038185875af1925050503d80600081146100f1576040519150601f19603f3d011682016040523d82523d6000602084013e6100f6565b606091505b505090508061013a576040517f08c379a000000000000000000000000000000000000000000000000000000000815260040161013190610230565b60405180910390fd5b3460008082825461014b9190610287565b925050819055507f787d3106cde7aa4ddd5abe23c8dbddf7ca8c84e95940d4a580aa0343d824dedf3334604051610183929190610207565b60405180910390a150565b610197816102dd565b82525050565b60006101aa60008361026b565b91506101b582610348565b600082019050919050565b60006101cd601783610276565b91506101d88261034b565b602082019050919050565b6101ec8161030f565b82525050565b60006101fd8261019d565b9150819050919050565b600060408201905061021c600083018561018e565b61022960208301846101e3565b9392505050565b60006020820190508181036000830152610249816101c0565b9050919050565b600060208201905061026560008301846101e3565b92915050565b600081905092915050565b600082825260208201905092915050565b60006102928261030f565b915061029d8361030f565b9250827fffffffffffffffffffffffffffffffffffffffffffffffffffffffffffffffff038211156102d2576102d1610319565b5b828201905092915050565b60006102e8826102ef565b9050919050565b600073ffffffffffffffffffffffffffffffffffffffff82169050919050565b6000819050919050565b7f4e487b7100000000000000000000000000000000000000000000000000000000600052601160045260246000fd5b50565b7f4661696c656420746f2073656e6420646f6e6174696f6e00000000000000000060008201525056fea2646970667358221220d52e7bdef5944220a9047bb2cf7a2bf50c1a07c4e13870c5cfae416d7ca604d864736f6c63430008040033",
  "linkReferences": {},
  "deployedLinkReferences": {}
}